{
  "_format": "hh-sol-artifact-1",
  "contractName": "TokenFarm",
  "sourceName": "contracts/TokenFarm.sol",
  "abi": [
    {
      "inputs": [
        {
          "internalType": "contract DAppToken",
          "name": "_dappToken",
          "type": "address"
        },
        {
          "internalType": "contract LPToken",
          "name": "_lpToken",
          "type": "address"
        }
      ],
      "stateMutability": "nonpayable",
      "type": "constructor"
    },
    {
      "anonymous": false,
      "inputs": [
        {
          "indexed": true,
          "internalType": "address",
          "name": "user",
          "type": "address"
        },
        {
          "indexed": false,
          "internalType": "uint256",
          "name": "amount",
          "type": "uint256"
        }
      ],
      "name": "Deposited",
      "type": "event"
    },
    {
      "anonymous": false,
      "inputs": [
        {
          "indexed": true,
          "internalType": "address",
          "name": "user",
          "type": "address"
        },
        {
          "indexed": false,
          "internalType": "uint256",
          "name": "amount",
          "type": "uint256"
        }
      ],
      "name": "RewardsClaimed",
      "type": "event"
    },
    {
      "anonymous": false,
      "inputs": [
        {
          "indexed": true,
          "internalType": "address",
          "name": "by",
          "type": "address"
        },
        {
          "indexed": false,
          "internalType": "uint256",
          "name": "timestamp",
          "type": "uint256"
        }
      ],
      "name": "RewardsDistributed",
      "type": "event"
    },
    {
      "anonymous": false,
      "inputs": [
        {
          "indexed": true,
          "internalType": "address",
          "name": "user",
          "type": "address"
        },
        {
          "indexed": false,
          "internalType": "uint256",
          "name": "amount",
          "type": "uint256"
        }
      ],
      "name": "Withdrawn",
      "type": "event"
    },
    {
      "inputs": [],
      "name": "REWARD_PER_BLOCK",
      "outputs": [
        {
          "internalType": "uint256",
          "name": "",
          "type": "uint256"
        }
      ],
      "stateMutability": "view",
      "type": "function"
    },
    {
      "inputs": [
        {
          "internalType": "address",
          "name": "",
          "type": "address"
        }
      ],
      "name": "checkpoints",
      "outputs": [
        {
          "internalType": "uint256",
          "name": "",
          "type": "uint256"
        }
      ],
      "stateMutability": "view",
      "type": "function"
    },
    {
      "inputs": [],
      "name": "claimRewards",
      "outputs": [],
      "stateMutability": "nonpayable",
      "type": "function"
    },
    {
      "inputs": [],
      "name": "dappToken",
      "outputs": [
        {
          "internalType": "contract DAppToken",
          "name": "",
          "type": "address"
        }
      ],
      "stateMutability": "view",
      "type": "function"
    },
    {
      "inputs": [
        {
          "internalType": "uint256",
          "name": "_amount",
          "type": "uint256"
        }
      ],
      "name": "deposit",
      "outputs": [],
      "stateMutability": "nonpayable",
      "type": "function"
    },
    {
      "inputs": [],
      "name": "distributeRewardsAll",
      "outputs": [],
      "stateMutability": "nonpayable",
      "type": "function"
    },
    {
      "inputs": [
        {
          "internalType": "address",
          "name": "",
          "type": "address"
        }
      ],
      "name": "hasStaked",
      "outputs": [
        {
          "internalType": "bool",
          "name": "",
          "type": "bool"
        }
      ],
      "stateMutability": "view",
      "type": "function"
    },
    {
      "inputs": [
        {
          "internalType": "address",
          "name": "",
          "type": "address"
        }
      ],
      "name": "isStaking",
      "outputs": [
        {
          "internalType": "bool",
          "name": "",
          "type": "bool"
        }
      ],
      "stateMutability": "view",
      "type": "function"
    },
    {
      "inputs": [],
      "name": "lpToken",
      "outputs": [
        {
          "internalType": "contract LPToken",
          "name": "",
          "type": "address"
        }
      ],
      "stateMutability": "view",
      "type": "function"
    },
    {
      "inputs": [],
      "name": "name",
      "outputs": [
        {
          "internalType": "string",
          "name": "",
          "type": "string"
        }
      ],
      "stateMutability": "view",
      "type": "function"
    },
    {
      "inputs": [],
      "name": "owner",
      "outputs": [
        {
          "internalType": "address",
          "name": "",
          "type": "address"
        }
      ],
      "stateMutability": "view",
      "type": "function"
    },
    {
      "inputs": [
        {
          "internalType": "address",
          "name": "",
          "type": "address"
        }
      ],
      "name": "pendingRewards",
      "outputs": [
        {
          "internalType": "uint256",
          "name": "",
          "type": "uint256"
        }
      ],
      "stateMutability": "view",
      "type": "function"
    },
    {
      "inputs": [
        {
          "internalType": "uint256",
          "name": "",
          "type": "uint256"
        }
      ],
      "name": "stakers",
      "outputs": [
        {
          "internalType": "address",
          "name": "",
          "type": "address"
        }
      ],
      "stateMutability": "view",
      "type": "function"
    },
    {
      "inputs": [
        {
          "internalType": "address",
          "name": "",
          "type": "address"
        }
      ],
      "name": "stakingBalance",
      "outputs": [
        {
          "internalType": "uint256",
          "name": "",
          "type": "uint256"
        }
      ],
      "stateMutability": "view",
      "type": "function"
    },
    {
      "inputs": [],
      "name": "totalStakingBalance",
      "outputs": [
        {
          "internalType": "uint256",
          "name": "",
          "type": "uint256"
        }
      ],
      "stateMutability": "view",
      "type": "function"
    },
    {
      "inputs": [],
      "name": "withdraw",
      "outputs": [],
      "stateMutability": "nonpayable",
      "type": "function"
    }
  ],
  "bytecode": "0x60806040526040518060400160405280601581526020017f436f666665655377617020546f6b656e204661726d0000000000000000000000815250600090816100489190610391565b5034801561005557600080fd5b50604051611d5f380380611d5f83398181016040528101906100779190610516565b81600260006101000a81548173ffffffffffffffffffffffffffffffffffffffff021916908373ffffffffffffffffffffffffffffffffffffffff16021790555080600360006101000a81548173ffffffffffffffffffffffffffffffffffffffff021916908373ffffffffffffffffffffffffffffffffffffffff16021790555033600160006101000a81548173ffffffffffffffffffffffffffffffffffffffff021916908373ffffffffffffffffffffffffffffffffffffffff1602179055505050610556565b600081519050919050565b7f4e487b7100000000000000000000000000000000000000000000000000000000600052604160045260246000fd5b7f4e487b7100000000000000000000000000000000000000000000000000000000600052602260045260246000fd5b600060028204905060018216806101c257607f821691505b6020821081036101d5576101d461017b565b5b50919050565b60008190508160005260206000209050919050565b60006020601f8301049050919050565b600082821b905092915050565b60006008830261023d7fffffffffffffffffffffffffffffffffffffffffffffffffffffffffffffffff82610200565b6102478683610200565b95508019841693508086168417925050509392505050565b6000819050919050565b6000819050919050565b600061028e6102896102848461025f565b610269565b61025f565b9050919050565b6000819050919050565b6102a883610273565b6102bc6102b482610295565b84845461020d565b825550505050565b600090565b6102d16102c4565b6102dc81848461029f565b505050565b5b81811015610300576102f56000826102c9565b6001810190506102e2565b5050565b601f82111561034557610316816101db565b61031f846101f0565b8101602085101561032e578190505b61034261033a856101f0565b8301826102e1565b50505b505050565b600082821c905092915050565b60006103686000198460080261034a565b1980831691505092915050565b60006103818383610357565b9150826002028217905092915050565b61039a82610141565b67ffffffffffffffff8111156103b3576103b261014c565b5b6103bd82546101aa565b6103c8828285610304565b600060209050601f8311600181146103fb57600084156103e9578287015190505b6103f38582610375565b86555061045b565b601f198416610409866101db565b60005b828110156104315784890151825560018201915060208501945060208101905061040c565b8683101561044e578489015161044a601f891682610357565b8355505b6001600288020188555050505b505050505050565b600080fd5b600073ffffffffffffffffffffffffffffffffffffffff82169050919050565b600061049382610468565b9050919050565b60006104a582610488565b9050919050565b6104b58161049a565b81146104c057600080fd5b50565b6000815190506104d2816104ac565b92915050565b60006104e382610488565b9050919050565b6104f3816104d8565b81146104fe57600080fd5b50565b600081519050610510816104ea565b92915050565b6000806040838503121561052d5761052c610463565b5b600061053b858286016104c3565b925050602061054c85828601610501565b9150509250929050565b6117fa806105656000396000f3fe608060405234801561001057600080fd5b50600436106101005760003560e01c80638da5cb5b11610097578063db03e22711610066578063db03e2271461028b578063dbb51d6e14610295578063e766c835146102c5578063fd5e6dd1146102e357610100565b80638da5cb5b14610203578063975532dc14610221578063b6b55f251461023f578063c93c8f341461025b57610100565b806345bc78ab116100d357806345bc78ab146101675780635eb186f8146101975780635fcbd285146101b55780636f49712b146101d357610100565b806306fdde031461010557806331d7a26214610123578063372500ab146101535780633ccfd60b1461015d575b600080fd5b61010d610313565b60405161011a91906110d2565b60405180910390f35b61013d60048036038101906101389190611157565b6103a1565b60405161014a919061119d565b60405180910390f35b61015b6103b9565b005b610165610565565b005b610181600480360381019061017c9190611157565b61082b565b60405161018e919061119d565b60405180910390f35b61019f610843565b6040516101ac9190611217565b60405180910390f35b6101bd610869565b6040516101ca9190611253565b60405180910390f35b6101ed60048036038101906101e89190611157565b61088f565b6040516101fa9190611289565b60405180910390f35b61020b6108af565b60405161021891906112b3565b60405180910390f35b6102296108d5565b604051610236919061119d565b60405180910390f35b610259600480360381019061025491906112fa565b6108e1565b005b61027560048036038101906102709190611157565b610c81565b6040516102829190611289565b60405180910390f35b610293610ca1565b005b6102af60048036038101906102aa9190611157565b610e3f565b6040516102bc919061119d565b60405180910390f35b6102cd610e57565b6040516102da919061119d565b60405180910390f35b6102fd60048036038101906102f891906112fa565b610e5d565b60405161030a91906112b3565b60405180910390f35b6000805461032090611356565b80601f016020809104026020016040519081016040528092919081815260200182805461034c90611356565b80156103995780601f1061036e57610100808354040283529160200191610399565b820191906000526020600020905b81548152906001019060200180831161037c57829003601f168201915b505050505081565b60086020528060005260406000206000915090505481565b6000600860003373ffffffffffffffffffffffffffffffffffffffff1673ffffffffffffffffffffffffffffffffffffffff16815260200190815260200160002054905060008111610440576040517f08c379a0000000000000000000000000000000000000000000000000000000008152600401610437906113d3565b60405180910390fd5b6000600860003373ffffffffffffffffffffffffffffffffffffffff1673ffffffffffffffffffffffffffffffffffffffff16815260200190815260200160002081905550600260009054906101000a900473ffffffffffffffffffffffffffffffffffffffff1673ffffffffffffffffffffffffffffffffffffffff166340c10f1933836040518363ffffffff1660e01b81526004016104e29291906113f3565b600060405180830381600087803b1580156104fc57600080fd5b505af1158015610510573d6000803e3d6000fd5b505050503373ffffffffffffffffffffffffffffffffffffffff167ffc30cddea38e2bf4d6ea7d3f9ed3b6ad7f176419f4963bd81318067a4aee73fe8260405161055a919061119d565b60405180910390a250565b33600a60008273ffffffffffffffffffffffffffffffffffffffff1673ffffffffffffffffffffffffffffffffffffffff16815260200190815260200160002060009054906101000a900460ff166105f2576040517f08c379a00000000000000000000000000000000000000000000000000000000081526004016105e990611468565b60405180910390fd5b6000600660003373ffffffffffffffffffffffffffffffffffffffff1673ffffffffffffffffffffffffffffffffffffffff16815260200190815260200160002054905060008111610679576040517f08c379a0000000000000000000000000000000000000000000000000000000008152600401610670906114d4565b60405180910390fd5b61068233610e9c565b6000600660003373ffffffffffffffffffffffffffffffffffffffff1673ffffffffffffffffffffffffffffffffffffffff1681526020019081526020016000208190555080600460008282546106d99190611523565b925050819055506000600a60003373ffffffffffffffffffffffffffffffffffffffff1673ffffffffffffffffffffffffffffffffffffffff16815260200190815260200160002060006101000a81548160ff021916908315150217905550600360009054906101000a900473ffffffffffffffffffffffffffffffffffffffff1673ffffffffffffffffffffffffffffffffffffffff1663a9059cbb33836040518363ffffffff1660e01b81526004016107959291906113f3565b6020604051808303816000875af11580156107b4573d6000803e3d6000fd5b505050506040513d601f19601f820116820180604052508101906107d89190611583565b503373ffffffffffffffffffffffffffffffffffffffff167f7084f5476618d8e60b11ef0d7d3f06914655adb8793e28ff7f018d4c76d505d58260405161081f919061119d565b60405180910390a25050565b60066020528060005260406000206000915090505481565b600260009054906101000a900473ffffffffffffffffffffffffffffffffffffffff1681565b600360009054906101000a900473ffffffffffffffffffffffffffffffffffffffff1681565b600a6020528060005260406000206000915054906101000a900460ff1681565b600160009054906101000a900473ffffffffffffffffffffffffffffffffffffffff1681565b670de0b6b3a764000081565b60008111610924576040517f08c379a000000000000000000000000000000000000000000000000000000000815260040161091b906115fc565b60405180910390fd5b600360009054906101000a900473ffffffffffffffffffffffffffffffffffffffff1673ffffffffffffffffffffffffffffffffffffffff166323b872dd3330846040518463ffffffff1660e01b81526004016109839392919061161c565b6020604051808303816000875af11580156109a2573d6000803e3d6000fd5b505050506040513d601f19601f820116820180604052508101906109c69190611583565b506109d033610e9c565b80600660003373ffffffffffffffffffffffffffffffffffffffff1673ffffffffffffffffffffffffffffffffffffffff1681526020019081526020016000206000828254610a1f9190611653565b925050819055508060046000828254610a389190611653565b92505081905550600960003373ffffffffffffffffffffffffffffffffffffffff1673ffffffffffffffffffffffffffffffffffffffff16815260200190815260200160002060009054906101000a900460ff16610b4c576005339080600181540180825580915050600190039060005260206000200160009091909190916101000a81548173ffffffffffffffffffffffffffffffffffffffff021916908373ffffffffffffffffffffffffffffffffffffffff1602179055506001600960003373ffffffffffffffffffffffffffffffffffffffff1673ffffffffffffffffffffffffffffffffffffffff16815260200190815260200160002060006101000a81548160ff0219169083151502179055505b6001600a60003373ffffffffffffffffffffffffffffffffffffffff1673ffffffffffffffffffffffffffffffffffffffff16815260200190815260200160002060006101000a81548160ff0219169083151502179055506000600760003373ffffffffffffffffffffffffffffffffffffffff1673ffffffffffffffffffffffffffffffffffffffff1681526020019081526020016000205403610c305743600760003373ffffffffffffffffffffffffffffffffffffffff1673ffffffffffffffffffffffffffffffffffffffff168152602001908152602001600020819055505b3373ffffffffffffffffffffffffffffffffffffffff167f2da466a7b24304f47e87fa2e1e5a81b9831ce54fec19055ce277ca2f39ba42c482604051610c76919061119d565b60405180910390a250565b60096020528060005260406000206000915054906101000a900460ff1681565b600160009054906101000a900473ffffffffffffffffffffffffffffffffffffffff1673ffffffffffffffffffffffffffffffffffffffff163373ffffffffffffffffffffffffffffffffffffffff1614610d31576040517f08c379a0000000000000000000000000000000000000000000000000000000008152600401610d28906116d3565b60405180910390fd5b60005b600580549050811015610dee57600060058281548110610d5757610d566116f3565b5b9060005260206000200160009054906101000a900473ffffffffffffffffffffffffffffffffffffffff169050600a60008273ffffffffffffffffffffffffffffffffffffffff1673ffffffffffffffffffffffffffffffffffffffff16815260200190815260200160002060009054906101000a900460ff1615610de057610ddf81610e9c565b5b508080600101915050610d34565b503373ffffffffffffffffffffffffffffffffffffffff167fdf29796aad820e4bb192f3a8d631b76519bcd2cbe77cc85af20e9df53cece08642604051610e35919061119d565b60405180910390a2565b60076020528060005260406000206000915090505481565b60045481565b60058181548110610e6d57600080fd5b906000526020600020016000915054906101000a900473ffffffffffffffffffffffffffffffffffffffff1681565b6000600760008373ffffffffffffffffffffffffffffffffffffffff1673ffffffffffffffffffffffffffffffffffffffff1681526020019081526020016000205490506000600454118015610ef157508043115b15610ffa5760008143610f049190611523565b90506000600454670de0b6b3a7640000600660008773ffffffffffffffffffffffffffffffffffffffff1673ffffffffffffffffffffffffffffffffffffffff16815260200190815260200160002054610f5e9190611722565b610f689190611793565b90506000670de0b6b3a76400008284670de0b6b3a7640000610f8a9190611722565b610f949190611722565b610f9e9190611793565b905080600860008773ffffffffffffffffffffffffffffffffffffffff1673ffffffffffffffffffffffffffffffffffffffff1681526020019081526020016000206000828254610fef9190611653565b925050819055505050505b43600760008473ffffffffffffffffffffffffffffffffffffffff1673ffffffffffffffffffffffffffffffffffffffff168152602001908152602001600020819055505050565b600081519050919050565b600082825260208201905092915050565b60005b8381101561107c578082015181840152602081019050611061565b60008484015250505050565b6000601f19601f8301169050919050565b60006110a482611042565b6110ae818561104d565b93506110be81856020860161105e565b6110c781611088565b840191505092915050565b600060208201905081810360008301526110ec8184611099565b905092915050565b600080fd5b600073ffffffffffffffffffffffffffffffffffffffff82169050919050565b6000611124826110f9565b9050919050565b61113481611119565b811461113f57600080fd5b50565b6000813590506111518161112b565b92915050565b60006020828403121561116d5761116c6110f4565b5b600061117b84828501611142565b91505092915050565b6000819050919050565b61119781611184565b82525050565b60006020820190506111b2600083018461118e565b92915050565b6000819050919050565b60006111dd6111d86111d3846110f9565b6111b8565b6110f9565b9050919050565b60006111ef826111c2565b9050919050565b6000611201826111e4565b9050919050565b611211816111f6565b82525050565b600060208201905061122c6000830184611208565b92915050565b600061123d826111e4565b9050919050565b61124d81611232565b82525050565b60006020820190506112686000830184611244565b92915050565b60008115159050919050565b6112838161126e565b82525050565b600060208201905061129e600083018461127a565b92915050565b6112ad81611119565b82525050565b60006020820190506112c860008301846112a4565b92915050565b6112d781611184565b81146112e257600080fd5b50565b6000813590506112f4816112ce565b92915050565b6000602082840312156113105761130f6110f4565b5b600061131e848285016112e5565b91505092915050565b7f4e487b7100000000000000000000000000000000000000000000000000000000600052602260045260246000fd5b6000600282049050600182168061136e57607f821691505b60208210810361138157611380611327565b5b50919050565b7f4e6f20686179207265636f6d70656e7361730000000000000000000000000000600082015250565b60006113bd60128361104d565b91506113c882611387565b602082019050919050565b600060208201905081810360008301526113ec816113b0565b9050919050565b600060408201905061140860008301856112a4565b611415602083018461118e565b9392505050565b7f4e6f206573746173207374616b65616e646f0000000000000000000000000000600082015250565b600061145260128361104d565b915061145d8261141c565b602082019050919050565b6000602082019050818103600083015261148181611445565b9050919050565b7f53696e2062616c616e6365000000000000000000000000000000000000000000600082015250565b60006114be600b8361104d565b91506114c982611488565b602082019050919050565b600060208201905081810360008301526114ed816114b1565b9050919050565b7f4e487b7100000000000000000000000000000000000000000000000000000000600052601160045260246000fd5b600061152e82611184565b915061153983611184565b9250828203905081811115611551576115506114f4565b5b92915050565b6115608161126e565b811461156b57600080fd5b50565b60008151905061157d81611557565b92915050565b600060208284031215611599576115986110f4565b5b60006115a78482850161156e565b91505092915050565b7f4d6f6e746f206465626520736572203e20300000000000000000000000000000600082015250565b60006115e660128361104d565b91506115f1826115b0565b602082019050919050565b60006020820190508181036000830152611615816115d9565b9050919050565b600060608201905061163160008301866112a4565b61163e60208301856112a4565b61164b604083018461118e565b949350505050565b600061165e82611184565b915061166983611184565b9250828201905080821115611681576116806114f4565b5b92915050565b7f536f6c6f206f776e657200000000000000000000000000000000000000000000600082015250565b60006116bd600a8361104d565b91506116c882611687565b602082019050919050565b600060208201905081810360008301526116ec816116b0565b9050919050565b7f4e487b7100000000000000000000000000000000000000000000000000000000600052603260045260246000fd5b600061172d82611184565b915061173883611184565b925082820261174681611184565b9150828204841483151761175d5761175c6114f4565b5b5092915050565b7f4e487b7100000000000000000000000000000000000000000000000000000000600052601260045260246000fd5b600061179e82611184565b91506117a983611184565b9250826117b9576117b8611764565b5b82820490509291505056fea26469706673582212203dfde5e9e6b6f3693d77d6cc363c3bc731f39b245a71d404567746c565c481d264736f6c634300081e0033",
  "linkReferences": {},
  "deployedLinkReferences": {}
}